:020000040800F2
:1000000000000320C530000809310008093100084C
:10001000093100080931000809310008000000001A
:10002000000000000000000000000000093100088E
:10003000093100080000000009310008011B000818
:1000400009310008093100080931000809310008A8
:100050000931000809310008093100080931000898
:100060000931000809310008093100080931000888
:100070000931000809310008093100080931000878
:100080000931000809310008093100080931000868
:100090000931000809310008093100080931000858
:1000A0000931000809310008093100080931000848
:1000B0000931000809310008093100080931000838
:1000C0000931000809310008093100080931000828
:1000D00009310008093100080931000851180008E9
:1000E0000931000809310008093100080931000808
:1000F00009310008093100080931000809310008F8
:1001000009310008093100080931000809310008E7
:1001100009310008093100080931000809310008D7
:1001200009310008093100080931000809310008C7
:1001300009310008093100080931000809310008B7
:1001400009310008093100080931000809310008A7
:100150000931000809310008093100080931000897
:100160000931000809310008093100080931000887
:100170000931000809310008093100080931000877
:100180000931000809310008093100080931000867
:100190000931000809310008093100080931000857
:1001A0000931000809310008093100080348044BEF
:1001B000834202D0034B03B118477047F801002077
:1001C000F8010020000000000548064B1B1AD90F5B
:1001D00001EBA301491002D0034B03B1184770474C
:1001E000F8010020F80100200000000010B5064CC6
:1001F000237843B9FFF7DAFF044B13B10448AFF398
:1002000000800123237010BDF801002000000000D1
:10021000685A000808B5044B1BB104490448AFF301
:100220000080BDE80840CFE700000000FC0100208E
:10023000685A0008000000000000000000000000F4
:1002400001F0FF01102A2BDB10F0070F08D010F887
:10025000013B013A8B422DD010F0070F42B3F6D18B
:10026000F0B441EA012141EA014122F007047FF0A4
:1002700000070023F0E80256083C85EA010586EAFB
:10028000010685FA47F5A3FA87F586FA47F6A5FA37
:1002900087F68EB9EED1F0BC01F0FF0102F0070243
:1002A00032B110F8013B013A83EA010313B1F8D1EE
:1002B0000020704701387047002D06BF35460338CF
:1002C000073815F0010F07D1013015F4807F02BF08
:1002D000013015F4C03F0130F0BC0138704700BF59
:1002E000034613F8012B002AFBD1181A0138704776
:1002F00081F0004102E000BF83F0004330B54FEAD7
:1003000041044FEA430594EA050F08BF90EA020F43
:100310001FBF54EA000C55EA020C7FEA645C7FEAD6
:10032000655C00F0E2804FEA5454D4EB5555B8BFF9
:100330006D420CDD2C4480EA020281EA030382EA6A
:10034000000083EA010180EA020281EA0303362DFC
:1003500088BF30BD11F0004F4FEA01314FF4801CCF
:100360004CEA113102D0404261EB410113F0004FE1
:100370004FEA03334CEA133302D0524263EB430398
:1003800094EA050F00F0A780A4F10104D5F1200E36
:100390000DDB02FA0EFC22FA05F2801841F1000191
:1003A00003FA0EF2801843FA05F359410EE0A5F165
:1003B00020050EF1200E012A03FA0EFC28BF4CF096
:1003C000020C43FA05F3C01851EBE37101F000454C
:1003D00007D54FF0000EDCF1000C7EEB00006EEB59
:1003E0000101B1F5801F1BD3B1F5001F0CD34908E3
:1003F0005FEA30004FEA3C0C04F101044FEA44523A
:1004000012F5800F80F09A80BCF1004F08BF5FEAC0
:10041000500C50F1000041EB045141EA050130BDA0
:100420005FEA4C0C404141EB0101013C28BFB1F5B2
:10043000801FE9D291F0000F04BF01460020B1FAFD
:1004400081F308BF2033A3F10B03B3F120020CDAD0
:100450000C3208DD02F1140CC2F10C0201FA0CF0AE
:1004600021FA02F10CE002F11402D8BFC2F1200C13
:1004700001FA02F120FA0CFCDCBF41EA0C019040C9
:10048000E41AA2BF01EB0451294330BD6FEA040412
:100490001F3C1CDA0C340EDC04F11404C4F12002FD
:1004A00020FA04F001FA02F340EA030021FA04F30F
:1004B00045EA030130BDC4F10C04C4F1200220FA66
:1004C00002F001FA04F340EA0300294630BD21FAA4
:1004D00004F0294630BD94F0000F83F4801306BF6A
:1004E00081F480110134013D4EE77FEA645C18BF5E
:1004F0007FEA655C29D094EA050F08BF90EA020FF5
:1005000005D054EA000C04BF1946104630BD91EAEC
:10051000030F1EBF0021002030BD5FEA545C05D1EF
:100520004000494128BF41F0004130BD14F580042E
:100530003CBF01F5801130BD01F0004545F0FE41A2
:1005400041F470014FF0000030BD7FEA645C1ABFD7
:10055000194610467FEA655C1CBF0B46024650EA0E
:10056000013406BF52EA033591EA030F41F400213A
:1005700030BD00BF90F0000F04BF0021704730B5C0
:100580004FF4806404F132044FF000054FF0000195
:1005900050E700BF90F0000F04BF0021704730B556
:1005A0004FF4806404F1320410F0004548BF40422B
:1005B0004FF000013EE700BF42004FEAE2014FEA80
:1005C00031014FEA02701FBF12F07F4393F07F4F5B
:1005D00081F06051704732F07F4208BF704793F05E
:1005E0007F4F04BF41F40021704730B54FF4607471
:1005F00001F0004521F000411CE700BF50EA010274
:1006000008BF704730B54FF000050AE050EA01021C
:1006100008BF704730B511F0004502D5404261EB8C
:1006200041014FF4806404F132045FEA915C3FF4CD
:10063000D8AE4FF003025FEADC0C18BF03325FEA6A
:10064000DC0C18BF033202EBDC02C2F1200300FA1B
:1006500003FC20FA02F001FA03FE40EA0E0021FA40
:1006600002F11444BDE600BF70B54FF0FF0C4CF42E
:10067000E06C1CEA11541DBF1CEA135594EA0C0FE0
:1006800095EA0C0F00F0DEF82C4481EA030621EA1B
:100690004C5123EA4C5350EA013518BF52EA033556
:1006A00041F4801143F4801338D0A0FB02CE4FF008
:1006B0000005E1FB02E506F00042E0FB03E54FF038
:1006C0000006E1FB03569CF0000F18BF4EF0010E30
:1006D000A4F1FF04B6F5007F64F5407404D25FEA2C
:1006E0004E0E6D4146EB060642EAC62141EA5551DF
:1006F0004FEAC52040EA5E504FEACE2EB4F1FD0C21
:1007000088BFBCF5E06F1ED8BEF1004F08BF5FEA9E
:10071000500E50F1000041EB045170BD06F0004650
:1007200046EA010140EA020081EA0301B4EB5C04FD
:10073000C2BFD4EB0C0541EA045170BD41F48011F5
:100740004FF0000E013C00F3AB8014F1360FDEBF1A
:10075000002001F0004170BDC4F10004203C35DAF6
:100760000C341BDC04F11404C4F1200500FA05F379
:1007700020FA04F001FA05F240EA020001F000421A
:1007800021F0004110EBD37021FA04F642EB060190
:100790005EEA430E08BF20EAD37070BDC4F10C04BA
:1007A000C4F1200500FA04F320FA05F001FA04F27E
:1007B00040EA020001F0004110EBD37041F100016A
:1007C0005EEA430E08BF20EAD37070BDC4F1200575
:1007D00000FA05F24EEA020E20FA04F301FA05F2DD
:1007E00043EA020321FA04F001F0004121FA04F285
:1007F00020EA020000EBD3705EEA430E08BF20EA55
:10080000D37070BD94F0000F0FD101F0004640008E
:1008100041EB010111F4801F08BF013CF7D041EA10
:10082000060195F0000F18BF704703F00046520014
:1008300043EB030313F4801F08BF013DF7D043EAE5
:100840000603704794EA0C0F0CEA135518BF95EA9B
:100850000C0F0CD050EA410618BF52EA4306D1D122
:1008600081EA030101F000414FF0000070BD50EA41
:10087000410606BF1046194652EA430619D094EACB
:100880000C0F02D150EA013613D195EA0C0F05D1B5
:1008900052EA03361CBF104619460AD181EA030109
:1008A00001F0004141F0FE4141F470014FF00000C1
:1008B00070BD41F0FE4141F4780170BD70B54FF05C
:1008C000FF0C4CF4E06C1CEA11541DBF1CEA1355DC
:1008D00094EA0C0F95EA0C0F00F0A7F8A4EB0504BE
:1008E00081EA030E52EA03354FEA013100F08880B5
:1008F0004FEA03334FF0805545EA131343EA12637E
:100900004FEA022245EA111545EA10654FEA002632
:100910000EF000419D4208BF964244F1FD0404F5EB
:10092000407402D25B084FEA3202B61A65EB030547
:100930005B084FEA32024FF480104FF4002CB6EB04
:10094000020E75EB030E22BFB61A754640EA0C0084
:100950005B084FEA3202B6EB020E75EB030E22BFC4
:10096000B61A754640EA5C005B084FEA3202B6EB05
:10097000020E75EB030E22BFB61A754640EA9C00C4
:100980005B084FEA3202B6EB020E75EB030E22BF94
:10099000B61A754640EADC0055EA060E18D04FEA52
:1009A000051545EA16754FEA06164FEAC30343EAF2
:1009B00052734FEAC2025FEA1C1CC0D111F4801FBF
:1009C0000BD141EA00014FF000004FF0004CB6E7B8
:1009D00011F4801F04BF01430020B4F1FD0C88BF57
:1009E000BCF5E06F3FF6AFAEB5EB030C04BFB6EB62
:1009F000020C5FEA500C50F1000041EB045170BD55
:100A00000EF0004E4EEA113114EB5C04C2BFD4EB81
:100A10000C0541EA045170BD41F480114FF0000E05
:100A2000013C90E645EA060E8DE60CEA135594EA81
:100A30000C0F08BF95EA0C0F3FF43BAF94EA0C0F84
:100A40000AD150EA01347FF434AF95EA0C0F7FF4F9
:100A500025AF104619462CE795EA0C0F06D152EA4D
:100A600003353FF4FDAE1046194622E750EA410631
:100A700018BF52EA43067FF4C5AE50EA41047FF442
:100A80000DAF52EA43057FF4EBAE12E74FF0FF3CA7
:100A900006E000BF4FF0010C02E000BF4FF0010C78
:100AA0004DF804CD4FEA410C7FEA6C5C4FEA430CF1
:100AB00018BF7FEA6C5C1BD001B050EA410C0CBF40
:100AC00052EA430C91EA030F02BF90EA020F0020A2
:100AD000704710F1000F91EA030F58BF994208BF09
:100AE00090422CBFD8176FEAE37040F001007047C6
:100AF0004FEA410C7FEA6C5C02D150EA013C07D11D
:100B00004FEA430C7FEA6C5CD6D152EA033CD3D067
:100B10005DF8040B704700BF8446104662468C4661
:100B20001946634600E000BF01B5FFF7B7FF002894
:100B300048BF10F1000F01BD4DF808EDFFF7F4FFBD
:100B40000CBF012000205DF808FB00BF4DF808ED48
:100B5000FFF7EAFF34BF012000205DF808FB00BF6B
:100B60004DF808EDFFF7E0FF94BF012000205DF88D
:100B700008FB00BF4DF808EDFFF7CEFF94BF012042
:100B800000205DF808FB00BF4DF808EDFFF7C4FF3B
:100B900034BF012000205DF808FB00BF4FEA410C84
:100BA0007FEA6C5C02D150EA013C0AD14FEA430C67
:100BB0007FEA6C5C02D152EA033C02D14FF00000A4
:100BC00070474FF0010070474FEA410212F50012E2
:100BD00015D211D56FF47873B3EB625212D94FEA84
:100BE000C12343F0004343EA505311F0004F23FA6E
:100BF00002F018BF404270474FF00000704750EAC3
:100C0000013005D111F0004008BF6FF0004070477F
:100C10004FF00000704700BF80B400AFBFF34F8FAC
:100C200000BF064BDB6803F4E0620449044B134346
:100C3000CB60BFF34F8F00BF00BFFDE700ED00E0CA
:100C40000400FA0580B582B000AF00F047FF00F065
:100C500019FD00F031FD00F0C1FD00F049FB8022DC
:100C6000AE49AF4800F0AEFF0022AE49AE4801F0F9
:100C70005DF877E1AD4B1B78002B63D1AC4800F0F9
:100C80008DFE0346002B5AD0AA4B5A78A94B1A70F6
:100C9000A84B9A78A74B5A70A64BDA78A54B9A7056
:100CA000A34800F067FE03461A46A24BDA70A14B38
:100CB0001B78C42B0CBF01230023BB71BB79002B15
:100CC00005D09C4B5B78552B01D1012300E000231C
:100CD000BB71BB7903F00103BB71BB79002B05D05D
:100CE000944B9B787E2B01D1012300E00023BB7144
:100CF000BB7903F00103BB71BB79002B05D08D4B91
:100D0000DB78102B01D1012300E00023BB71BB79FC
:100D100003F00103BB71BB79002B0DD02021864865
:100D200000F036FC844800F0BBFB7F4801F04BF834
:100D30007E4B01221A7015E100F07CFA12E100F0FE
:100D400079FA0FE100F0E4FA784B1B78013B062BAF
:100D500000F2058101A252F823F000BF790D0008CE
:100D6000BF0D0008E30D0008210E00083D0E00082D
:100D70009B0E0008BB0E000800F07EFB0346002B14
:100D80001AD06D4800F0A8FB31216B4800F0D5FB6C
:100D90000346002B0DD0644801F015F83721664852
:100DA00000F0F6FB644800F07BFB604B02221A70F7
:100DB000D8E000F02DFAD5E000F03CFAD2E04FF494
:100DC000FA7000F0CFFE584800F0FDFF3C215A4871
:100DD00000F0DEFB584800F063FB544B03221A700E
:100DE000C0E000F049FB0346002B16D0524800F04B
:100DF00073FB514800F02CFA0346002B0AD04E4BEF
:100E00009B78422B06D1484800F0DDFF474B042277
:100E10001A70A7E000F0FCF9A4E000F00BFAA1E0E2
:100E2000414800F0D0FF4221434800F0B1FB424866
:100E300000F036FB3D4B05221A7093E000F01CFBDE
:100E40000346002B26D03C4800F046FB3A4B9B78EB
:100E50001A46394BDB781B021A43374B1B791B04AC
:100E60001A43354B5B791B0613431A46334B1A6002
:100E7000314800F015FA0346002B08D02F4B1B68B1
:100E8000B3F5F81F03D8294B06221A706AE000F068
:100E9000BFF967E000F0CEF964E000F095FB48216F
:100EA000254800F075FB244800F0FAFA1E4800F0CF
:100EB0008AFF1E4B07221A7054E000F0DDFA034649
:100EC000002B49D01C4800F007FB1B4B1B7801335B
:100ED000FB711B4B1B6803F1006303F58033FA7948
:100EE0001849184600F0A8FBFA79154B1B68134403
:100EF000134A13600C4800F066FF114B1A680F4B41
:100F00001B689A4220D354210B4800F041FB0A4849
:100F100000F0C6FA054B08221A7023E044020020B4
:100F2000C402002020A10700240200201402002097
:100F3000004800402002002030020020180200205B
:100F40001C020020310200204821164800F020FB3E
:100F5000144800F0A5FA05E000F06CF902E0124B2D
:100F600000221A70104B1B78082B7FF483AE0F48B9
:100F700000F0E0FD00F02CFD00F0D0FB00F08FFB56
:100F800000F00CFE00F050F80346002B02D000F0F9
:100F90000FF801E0FFF740FE002318460837BD4672
:100FA00080BD00BF300200201402002040420F002C
:100FB00080B582B000AF064B7B607B6804331B6852
:100FC0003B603B68984700BF0837BD4680BD00BF07
:100FD0000000010880B586B000AFF860B9607A60A3
:100FE0000023FB7510E0FB7DFA6813441978FB7D44
:100FF000BA6813441A78FB7DF86803444A40D2B2B9
:101000001A70FB7D0133FB75FB7D0F2BEBD97968E3
:10101000F86801F081F91022F968B86802F061FE01
:1010200000BF1837BD4680BD90B5B9B000AF744B56
:10103000C7F8D430734BC7F8D030D7F8D4301B681A
:10104000714A934201D00023D5E0D7F8D4305B68D1
:10105000422B01D00023CEE007F1200319466B4854
:1010600000F02CFF07F1100300221A605A609A600A
:10107000DA603B4600221A605A609A60DA60D7F85C
:10108000D430DB68DBB203F00F03DBB2C3F1100333
:1010900087F8DF3097F8DF30002B02D1102387F874
:1010A000DF30D7F8D43007F11004186859689A680F
:1010B000DB680FC407F12002394607F11003184618
:1010C000FFF788FF0023C7F8D8307EE0D7F8D83084
:1010D000B3F5D87F05D1D7F8D8302033C7F8D8304A
:1010E00073E0D7F8D430DA68D7F8D830D31A102B99
:1010F00015D9D7F8D83003F1006303F5803307F131
:101100001004186859689A68DB680FC407F1200258
:10111000394607F110031846FFF75CFF50E097F8D7
:10112000DF30102B24D1D7F8D83003F1006303F55A
:10113000803307F11004186859689A68DB680FC497
:1011400007F12002394607F110031846FFF742FF66
:1011500007F1100310221021184602F043FD07F199
:101160002002394607F110031846FFF733FF27E046
:10117000D7F8D83003F1006303F58033194697F8A8
:10118000DF30C3F110031A4607F11003184602F0CE
:10119000A8FD97F8DF30C3F110031A4607F11003DA
:1011A000134497F8DF1097F8DF20184602F01AFD75
:1011B00007F12002394607F110031846FFF70AFF2E
:1011C000D7F8D8301033C7F8D830D7F8D430DB6828
:1011D000D7F8D8209A42FFF479AF07F11003102214
:1011E0001946D7F8D00002F0EDFC0346002B0CBFE7
:1011F00001230023DBB21846E437BD4690BD00BF93
:10120000B0010108C0010108DEC0ADDE805A00084F
:1012100080B500AF5921054800F0BAF9034800F045
:101220003FF9034B08221A7000BF80BD3002002036
:101230001402002080B500AF044800F092FD034680
:10124000002B01D0FFF7E4FF00BF80BD2402002087
:1012500080B485B000AF78607B681B78022B01D02A
:10126000002317E07B685B783F2B01D0002311E05F
:101270000223FB730AE0FB7B7A6813445B78FF2B45
:1012800001D0002306E0FB7B0133FB73FB7B0F2BBC
:10129000F1D9012318461437BD465DF8047B704729
:1012A00080B485B000AF78607B681B78052B01D0D7
:1012B000002317E07B685B78452B01D0002311E009
:1012C0000523FB730AE0FB7B7A6813445B78FF2BF2
:1012D00001D0002306E0FB7B0133FB73FB7B0F2B6C
:1012E000F1D9012318461437BD465DF8047B7047D9
:1012F00080B500AF1921044800F04AF915210348D0
:1013000000F046F900BF80BDEC0200200003002081
:10131000B0B582B000AF8DE04C4B1B78022B2CD0C7
:10132000022B00F38280002B02D0012B0BD07CE03B
:10133000474800F01FFB03461A46464B1A70434BC2
:1013400001221A7076E0444B1B785A1CD1B2424AF3
:1013500011701C463E4800F00DFB03461A463D4BFB
:1013600023445A703C4B1B780F2B62D93A4B002216
:101370001A70364B02221A705BE0354800F0FAFA18
:1013800003461A46334B5A74324B5C7C314800F0AA
:10139000C7F803469C4206D0304800F081F82B4B3A
:1013A00000221A7046E019212A4800F0C6F80346C8
:1013B000002B06D02A4800F073F8244B00221A7044
:1013C00038E01521234800F0B8F80346002B03D07D
:1013D0001E4B00221A702DE0224B1B685A1C224B18
:1013E0001B6813407B60214B1B687A689A4200D1CE
:1013F00000BE1C4B1A681346DB0013445B001C4AFA
:101400001344144A1D4614460FCC28606960AA6034
:10141000EB6023882B82134A7B681360154800F029
:101420003FF80A4B00221A7004E0084B00221A70A1
:1014300000E000BF064800F0B1FA0346002B7FF43D
:101440006BAF00BF00BF0837BD46B0BDD40200205F
:1014500000480040D8020020D5020020EC02002005
:1014600014030020BC03002004000020B803002067
:10147000280300200003002080B400AF064B1A6848
:10148000064B1B689A4214BF01230023DBB21846A7
:10149000BD465DF8047B7047B8030020BC03002004
:1014A000B0B582B000AF786012227968084800F0C9
:1014B000FFF9084A7B6814461D4628686968AA68CF
:1014C000EB680FC42B8A238000BF0837BD46B0BD30
:1014D000004800401403002080B582B000AF78605F
:1014E0000C4B1A681346DB0013445B000A4A134492
:1014F00012221946786802F0F4FB064B1B685A1C4E
:10150000064B1B681340034A136000BF0837BD46F3
:1015100080BD00BFB8030020280300200400002085
:1015200080B582B000AF78601121786800F0C6FB0A
:10153000034618460837BD4680BD80B485B000AF6D
:1015400078600B46FB707B681B78012B01D0002371
:1015500018E07B685B78FA789A4201D0002311E0AA
:101560000123FB730AE0FB7B7A6813445B78FF2B53
:1015700001D0002306E0FB7B0133FB73FB7B0F2BC9
:10158000F1D9012318461437BD465DF8047B704736
:1015900080B582B000AF78600B46FB701222FF214D
:1015A000786802F01FFB7B6801221A707B68FA786A
:1015B0005A707868FFF7B4FF03461A467B685A747E
:1015C00000BF0837BD4680BD80B500AF00F0D8FE33
:1015D00000BF0221202000F0FBFE0346082BF8D1BB
:1015E00000BF0221282000F0F3FE0346082BF8D1AB
:1015F00000BF0221302000F0EBFE0346082BF8D19B
:1016000000BF0221382000F0E3FE0346082BF8D18A
:1016100000BF0221402000F0DBFE0346082BF8D17A
:1016200000BF0221482000F0D3FE0346082BF8D16A
:1016300000F0BEFE00BF80BD80B586B000AFF86090
:10164000B9607A6000F09CFE00237B6110E000BF6F
:10165000FA687B69D018BA687B6913441B7819460D
:1016600000F016FF0346082BF2D17B6901337B6142
:101670007A697B689A42EAD300F09AFE00BF183775
:10168000BD4680BD80B500AF01210A2001F098F968
:1016900001214FF4802001F0B3F900BF80BD80B577
:1016A00000AF00210A2001F08BF900214FF48020C7
:1016B00001F0A6F900BF80BD80B582B000AF3B4607
:1016C00008220021184602F08DFA44F281033B60A3
:1016D00001233B7100237B710023BB710023FB714D
:1016E0003B4619460B4800F0E5FF4FF440733B6062
:1016F00002233B7100237B710023BB710123FB712B
:101700003B461946044800F0D5FF00BF0837BD46E8
:1017100080BD00BF00040240000C024080B582B0D2
:1017200000AF3B4608220021184602F05BFA44F263
:1017300081033B6003233B713B4619460B4800F095
:10174000B9FF4FF440733B6003233B713B4619469E
:10175000074800F0AFFF054800F01CFF044800F008
:1017600019FF00BF0837BD4680BD00BF000402401E
:10177000000C024080B483B000AF0346FB71FB79DC
:1017800003F01F03012202FA03F1064A97F907301A
:101790005B0942F8231000BF0C37BD465DF8047B9F
:1017A000704700BF00E100E080B483B000AF0346A3
:1017B000FB71FB7903F01F03012202FA03F1064AD1
:1017C00097F907305B09203342F8231000BF0C372C
:1017D000BD465DF8047B704700E100E080B584B051
:1017E00000AF3B4610220021184602F0FBF9072209
:1017F0000821154800F0EDFF07220921124800F0EA
:10180000E8FF4FF4E1333B600023BB800023FB8003
:1018100000233B810C237B810023BB813B4619467F
:101820000A4801F0D7F90121084801F08DFA012298
:1018300040F22551054801F0C9FA2720FFF79AFF29
:1018400000BF1037BD4680BD000C0240004800407C
:1018500080B582B000AF4FF45871134801F01AFB05
:101860000346012B0CBF01230023FB7140F22551DD
:101870000D4801F00FFB0346012B0CBF0123002391
:10188000BB71FB79002B02D1BB79002B08D0064835
:1018900001F08CFA0346DBB21946044800F0BEF9A9
:1018A00000BF0837BD4680BD00480040C40200208C
:1018B00080B586B000AFF860B9607A6000237B61C4
:1018C0000AE0BA687B6913441B781946F86800F08F
:1018D0000CF87B6901337B617A697B689A42F0D3AB
:1018E00000BF00BF1837BD4680BD80B582B000AFD5
:1018F00078600B46FB7000BF8021786801F0AEFA7B
:101900000346012BF8D1FB789BB21946786801F0A9
:101910003BFA00BF0837BD4680BD000080B586B0E9
:1019200000AFF860B9607A607B68002B01D10023BA
:1019300019E000237B6111E0BA687B691344194602
:101940000B4800F093F9034683F00103DBB2002B50
:1019500001D07B6907E07B6901337B617A697B6831
:101960009A42E9D37B6818461837BD4680BD00BF50
:10197000C402002080B584B000AF78600023FB7300
:1019800007F10F03012219460348FFF7C7FFFB7B4E
:1019900018461037BD4680BD0048004080B582B073
:1019A00000AF7860094800F026F90346002B14BF09
:1019B00001230023DBB283F00103DBB203F0010358
:1019C000DBB218460837BD4680BD00BFC402002008
:1019D00080B584B000AF2720FFF7E6FE002240F27A
:1019E00025510A4801F0F2F90021084801F0ACF94C
:1019F0003B4610220021184602F0F4F8034801F09B
:101A00007FF800BF1037BD4680BD00BF00480040D2
:101A100080B483B000AF0346FB71FB7903F01F0372
:101A2000012202FA03F1064A97F907305B092033D5
:101A300042F8231000BF0C37BD465DF8047B7047A9
:101A400000E100E080B483B000AF03463960FB7171
:101A500097F90730002B0BDA3B68DAB20C49FB79B7
:101A600003F00F03043B1201D2B20B441A7609E0D3
:101A70003B68DAB2074997F907301201D2B20B443A
:101A800083F8002300BF0C37BD465DF8047B704728
:101A900000ED00E000E100E080B582B000AF7860CA
:101AA0007B68B3F1807F01D3012311E07B6823F0D1
:101AB0007F43094A013B53600F214FF0FF30FFF78E
:101AC000C1FF054B00229A60034B07221A600023D6
:101AD00018460837BD4680BD10E000E080B500AF75
:101AE000054B1B68054AA2FB03239B0C1846FFF716
:101AF000D3FF00BF80BD00BF0000002083DE1B437A
:101B000080B400AF044B1B680133034A136000BF6D
:101B1000BD465DF8047B7047C003002080B400AF71
:101B2000034B1B681846BD465DF8047B704700BF39
:101B3000C003002080B483B000AF7860084B00225F
:101B40001A6001E000BF00BF054B1B687A689A422B
:101B5000F8D800BF00BF0C37BD465DF8047B704766
:101B6000C003002080B483B000AF78600A4B00222D
:101B70001A6001E000BF00BF7B684FF47A7203FB7C
:101B800002F2054B1B689A42F4D800BF00BF0C3725
:101B9000BD465DF8047B7047C003002080B500AFF0
:101BA0004FF0FF30FFF734FF054B00221A60044B63
:101BB00000229A60024B00225A6000BF80BD00BF25
:101BC00010E000E080B485B000AFF860B9607A60E2
:101BD000FB68BA681A60FB6800229A60FB68002202
:101BE000DA607B685A1EFB685A6000BF1437BD4636
:101BF0005DF8047B704780B483B000AF78607B6889
:101C00009A687B68DB689A420CBF01230023DBB231
:101C100018460C37BD465DF8047B704780B487B02A
:101C200000AF78600B46FB707B689B687B617B68CC
:101C3000DB683B613B695A1C7B685B681340FB6057
:101C4000FA687B699A4201D1002309E07B681A682F
:101C50003B691344FA781A707B68FA68DA600123EA
:101C600018461C37BD465DF8047B704780B485B0CC
:101C700000AF786039607B689B68FB607B68DB68DD
:101C8000BB60BA68FB689A4201D1002310E07B6810
:101C90001A68FB6813441A783B681A70FB685A1C70
:101CA0007B685B681340FB607B68FA689A6001237D
:101CB00018461437BD465DF8047B704780B487B082
:101CC00000AF786039600023FB7500233B6122E0A0
:101CD0007A683B6913441A78FB7D5340FB750023F7
:101CE000FB7312E097F91730002B08DA97F91730D9
:101CF0005B005BB283F007035BB2FB7502E0FB7D28
:101D00005B00FB75FB7B0133FB73FB7B072BE9D986
:101D10003B6901333B613A693B689A42D8D3FB7D0A
:101D200018461C37BD465DF8047B704780B584B00B
:101D300000AFF860B9601346FB71FB68BA681A60BF
:101D4000FB68FA791A72FFF7E9FE0246BB681A448B
:101D5000FB685A60FB6800225A7200BF1037BD460C
:101D600080BD80B586B000AF7860FFF7D7FE7861A0
:101D70007B685B687A699A422CBF01230023FB745D
:101D80007B685B7A002B01D0002318E0FB7C002BE2
:101D900014D07B681B7A002B0DD07B685B687A6956
:101DA000D31AFB607B681A687B691A44FB68D21AF5
:101DB0007B685A6002E07B6801225A72FB7C1846FD
:101DC0001837BD4680BD80B582B000AF78607B68B3
:101DD00019687B681B7A1A467868FFF7A7FF00BF6F
:101DE0000837BD4680BD80B485B000AF03460A46C3
:101DF000FB711346BB710023FB7300237B7300232D
:101E0000BB731CE0BB7903F00103002B03D0FA7B0A
:101E1000FB795340FB73FB7923F07F037B73FB79E2
:101E20005B00FB717B7B002B03D0FB7983F01B03F2
:101E3000FB71BB795B08BB71BB7B0133BB73BB7BA5
:101E4000072BDFD9FB7B18461437BD465DF8047BB2
:101E5000704780B485B000AFF860B9607A60FB6805
:101E60001A78BB681B785340DAB27B681A70FB683B
:101E700001331978BB6801331A787B6801334A4013
:101E8000D2B21A70FB6802331978BB6802331A7831
:101E90007B6802334A40D2B21A70FB680333197868
:101EA000BB6803331A787B6803334A40D2B21A7096
:101EB00000BF1437BD465DF8047B704780B586B01F
:101EC00000AF786039603B687B611022796878697F
:101ED00001F007FF7B6910333B617B690C331B68A2
:101EE000BB600023FB6046E007F10803184600F0E2
:101EF0004FF807F108032449184600F09AF8FB68E8
:101F00009B00224A991807F1080207F108031846B6
:101F1000FFF79FFF79693A6907F108031846FFF751
:101F200098FF38697B69191D3B6904331A46FFF72E
:101F300090FF3B69181D7B6903F108013B69083379
:101F40001A46FFF786FF3B6903F108007B6903F13E
:101F50000C013B690C331A46FFF77BFF3B690C33DE
:101F60001B68BB607B6910337B613B6910333B614D
:101F7000FB680133FB60FB68092BB5D900BF00BFCC
:101F80001837BD4680BD00BF905A000808000020E9
:101F900080B485B000AF78607B681B78FB737B688A
:101FA0005A787B681A707B6801337A6892781A7065
:101FB0007B6802337A68D2781A707B680333FA7BC5
:101FC0001A7000BF1437BD465DF8047B704780B4BB
:101FD00087B000AF7860396000237B611FE0002389
:101FE0003B6116E07B699B007A681A443B691344A5
:101FF0001B78FB73FB7B3A6813447A69920079681B
:102000000A4419783B6913440A461A703B69013344
:102010003B613B69032BE5D97B6901337B617B69BC
:10202000032BDCD900BF00BF1C37BD465DF8047B25
:10203000704780B485B000AF786039600023FB60E2
:102040000FE07A68FB6813441B78FB72FB7A3A68EE
:102050001A447968FB680B4412781A70FB680133E4
:10206000FB60FB68032BECD900BF00BF1437BD46F3
:102070005DF8047B704780B485B000AF78607B6802
:102080005B78FB737B6804335A787B685A707B6893
:1020900003F108027B68043352785A707B6803F1BD
:1020A0000C027B68083352785A707B680C33FA7BD9
:1020B0005A707B689B78FB737B6804339B78BB7397
:1020C0007B6808339A787B689A707B6803F10C020E
:1020D0007B68043392789A707B680833FA7B9A7035
:1020E0007B680C33BA7B9A707B680C33DB78FB73AC
:1020F0007B6803F108027B680C33D278DA707B6866
:102100001A1D7B680833D278DA707B6804337A68EA
:10211000D278DA707B68FA7BDA7000BF1437BD467C
:102120005DF8047B704790B585B000AF7860002300
:10213000BB600023FB60B0E0FB689B007A6813443F
:102140001B7819460220FFF74EFE03461C46FB682B
:102150009B007A6813445B7819460320FFF743FE1F
:1021600003466340DAB2FB689B0079680B449B78B6
:102170005340DAB2FB689B0079680B44DB7853402C
:10218000DBB23B72FB689B007A6813441C78FB68E7
:102190009B007A6813445B7819460220FFF723FE00
:1021A00003466340DCB2FB689B007A6813449B786B
:1021B00019460320FFF717FE03466340DAB2FB68B7
:1021C0009B0079680B44DB785340DBB27B72FB6881
:1021D0009B007A6813441A78FB689B0079680B446B
:1021E0005B785340DCB2FB689B007A6813449B78B1
:1021F00019460220FFF7F7FD03466340DCB2FB6897
:102200009B007A681344DB7819460320FFF7EBFD47
:1022100003466340DBB2BB72FB689B007A681344E1
:102220001B7819460320FFF7DEFD03461946FB68BD
:102230009B007A6813445B784B40DAB2FB689B00E2
:1022400079680B449B785340DCB2FB689B007A684A
:102250001344DB7819460220FFF7C5FD03466340AF
:10226000DBB2FB72FB689B007A6813443A7A1A70FF
:10227000FB689B007A6813447A7A5A70FB689B006B
:102280007A681344BA7A9A70FB689B007A681344A0
:10229000FA7ADA70FB680133FB60FB68032B7FF688
:1022A0004BAF00BF00BF1437BD4690BD80B485B0B2
:1022B00000AF786039600023FB6023E00023BB603F
:1022C0001AE0FB689B007A681A44BB6813441978CB
:1022D000FB689B003A681A44BB6813441B78FA6891
:1022E0009200786802444B40D9B2BB6813440A4656
:1022F0001A70BB680133BB60BB68032BE1D9FB6874
:102300000133FB60FB68032BD8D900BF00BF143733
:10231000BD465DF8047B704780B584B000AF78603F
:1023200039603B68FB60FB6803F11002FA601946F4
:102330007868FFF7BBFF0123BB6017E00F4978689F
:10234000FFF745FE7868FFF796FEBB68092B02D8B9
:102350007868FFF7E8FEFB6803F11002FA6019469F
:102360007868FFF7A3FFBB680133BB60BB680A2B2B
:10237000E4D900BF00BF1037BD4680BD905A0008A9
:1023800080B400AF074B1B69002B05DA054B064AEA
:102390005A60044B054A5A6000BFBD465DF8047B95
:1023A000704700BF003C024023016745AB89EFCD79
:1023B00080B400AF054B1B69044A43F0004313612E
:1023C00000BFBD465DF8047B704700BF003C024083
:1023D00080B584B000AF78600B46FB700023FB60D3
:1023E0000823FB72FB78002B02D10023FB6010E076
:1023F000FB78012B03D14FF48073FB6009E0FB787D
:10240000022B03D14FF40073FB6002E04FF44073E2
:10241000FB6000F0A7F80346FB72FB7A082B2FD174
:102420001A4B1B69194A23F440731361174B1A693D
:102430001649FB6813430B61144B1B69134A23F0C5
:10244000F8031361114B1A697B6813430F4A43F079
:10245000020313610D4B1B690C4A43F48033136173
:1024600000F080F80346FB72084B1B69074A23F013
:1024700002031361054B1B69044A23F0F80313613F
:10248000FB7A18461037BD4680BD00BF003C0240B5
:1024900080B584B000AF78600B46FB700823FB73F7
:1024A00000F060F80346FB73FB7B082B1CD1114B3B
:1024B0001B69104A23F4407313610E4B0D4A1B69CC
:1024C00013610C4B1B690B4A43F0010313617B68DA
:1024D000FA781A7000F046F80346FB73054B1B6947
:1024E000044A23F001031361FB7B18461037BD46F5
:1024F00080BD00BF003C024080B483B000AF082321
:10250000FB71174BDB6803F48033B3F5803F02D1D6
:102510000123FB711CE0124BDB6803F01003002B5E
:1025200002D00523FB7113E00D4BDB6803F0EF03D2
:10253000002B02D00623FB710AE0094BDB6803F095
:102540000203002B02D00723FB7101E00823FB717B
:10255000FB7918460C37BD465DF8047B704700BF19
:10256000003C024080B582B000AF0823FB71FFF74A
:10257000C3FF0346FB7103E0FFF7BEFF0346FB7199
:10258000FB79DBB2012BF7D0FB79DBB218460837B9
:10259000BD4680BD80B582B000AF78607B683C4AA4
:1025A000934208D10121012000F04AFA00210120C4
:1025B00000F046FA68E07B68364A934208D1012170
:1025C000022000F03DFA0021022000F039FA5BE021
:1025D0007B68314A934208D10121042000F030FA8F
:1025E0000021042000F02CFA4EE07B682B4A934235
:1025F00008D10121082000F023FA0021082000F072
:102600001FFA41E07B68264A934208D1012110203D
:1026100000F016FA0021102000F012FA34E07B6876
:10262000204A934208D10121202000F009FA00211C
:10263000202000F005FA27E07B681B4A934208D16E
:102640000121402000F0FCF90021402000F0F8F9C1
:102650001AE07B68154A934208D10121802000F0DE
:10266000EFF90021802000F0EBF90DE07B68104AC3
:10267000934209D101214FF4807000F0E1F900216B
:102680004FF4807000F0DCF900BF0837BD4680BD14
:10269000000002400004024000080240000C02401A
:1026A000001002400014024000180240001C0240CA
:1026B0000020024080B487B000AF7860396000230A
:1026C0007B6100233B610023FB6000237B6176E09C
:1026D00001227B6902FA03F33B613B681B683A699C
:1026E0001340FB60FA683B699A4265D17B681A68BF
:1026F0007B695B00032101FA03F3DB431A407B682B
:102700001A607B681A683B681B7919467B695B0015
:1027100001FA03F31A437B681A603B681B79012BAB
:1027200003D03B681B79022B2ED17B689A687B69AA
:102730005B00032101FA03F3DB431A407B689A60D4
:102740007B689A683B685B7919467B695B0001FA94
:1027500003F31A437B689A607B685A687B699BB273
:10276000194601238B40DB431A407B685A607B6823
:102770005B683A68927911467A6992B201FA02F27C
:1027800092B21A437B685A607B68DA687B699BB2B5
:102790005B00032101FA03F3DB431A407B68DA6034
:1027A0007B68DA683B68DB7919467B695B0001FA74
:1027B00003F31A437B68DA607B6901337B617B69D1
:1027C0000F2B85D900BF00BF1C37BD465DF8047BC9
:1027D000704780B485B000AF78600B467B801346AD
:1027E0007B700023FB600023BB607A787B8803F05A
:1027F00007039B0002FA03F3FB607B88DB089BB2B4
:102800001A467B68083253F822207B8803F00703BE
:102810009B000F2101FA03F3DB437988C90889B2D1
:10282000084602EA03017B6800F1080243F822101F
:102830007B88DB089BB21A467B68083253F822304B
:10284000FA681343BB607B88DB089BB21A467B683F
:102850000832B96843F8221000BF1437BD465DF84E
:10286000047B704780B489B000AF78600023BB61FF
:1028700000237B610023FB6102233B610023FB609B
:102880000223BB604A4B9B6803F00C03BB61BB692E
:10289000082B11D0BB69082B44D8BB69002B03D08F
:1028A000BB69042B04D03DE07B68424A1A603DE0DE
:1028B0007B68414A1A6039E03D4B5B689B0D03F031
:1028C0000103FB603A4B5B6803F03F03BB60FB68AE
:1028D000002B0CD0384ABB68B2FBF3F3344A526881
:1028E0009209C2F3080202FB03F3FB610BE0314AD9
:1028F000BB68B2FBF3F32E4A52689209C2F3080296
:1029000002FB03F3FB612A4B5B681B0C03F0030320
:1029100001335B003B61FA693B69B2FBF3F27B6810
:102920001A6003E07B68234A1A6000BF204B9B6853
:1029300003F0F003BB61BB691B09BB611F4ABB69A4
:1029400013441B78DBB27B617B681A687B69DA40D1
:102950007B685A60164B9B6803F4E053BB61BB690C
:102960009B0ABB61154ABB6913441B78DBB27B61D0
:102970007B685A687B69DA407B689A600C4B9B687D
:1029800003F46043BB61BB695B0BBB610B4ABB6972
:1029900013441B78DBB27B617B685A687B69DA4041
:1029A0007B68DA6000BF2437BD465DF8047B704762
:1029B000003802400024F40000127A00905B000806
:1029C00080B483B000AF78600B46FB70FB78002BBF
:1029D00006D00A4B1A6B09497B6813430B6306E068
:1029E000064B1A6B7B68DB43044913400B6300BF43
:1029F0000C37BD465DF8047B704700BF00380240CD
:102A000080B483B000AF78600B46FB70FB78002B7E
:102A100006D00A4B1A6C09497B6813430B6406E025
:102A2000064B1A6C7B68DB43044913400B6400BF00
:102A30000C37BD465DF8047B704700BF003802408C
:102A400080B483B000AF78600B46FB70FB78002B3E
:102A500006D00A4B1A6909497B6813430B6106E0EB
:102A6000064B1A697B68DB43044913400B6100BFC6
:102A70000C37BD465DF8047B704700BF003802404C
:102A800080B483B000AF78600B46FB70FB78002BFE
:102A900006D00A4B1A6A09497B6813430B6206E0A9
:102AA000064B1A6A7B68DB43044913400B6200BF84
:102AB0000C37BD465DF8047B704700BF003802400C
:102AC00080B483B000AF78600B46FB70FB78002BBE
:102AD00006D00A4B5A6A09497B6813434B6206E0E9
:102AE000064B5A6A7B68DB43044913404B6200BFC4
:102AF0000C37BD465DF8047B704700BF00380240CC
:102B000080B582B000AF78607B682C4A934208D1D0
:102B100001211020FFF7D4FF00211020FFF7D0FF84
:102B200047E07B68264A93420AD101214FF40030E6
:102B3000FFF7A6FF00214FF40030FFF7A1FF38E0B8
:102B40007B68204A93420AD101214FF48020FFF78D
:102B500097FF00214FF48020FFF792FF29E07B6868
:102B6000194A93420AD101214FF40020FFF788FF50
:102B700000214FF40020FFF783FF1AE07B68134A1F
:102B800093420AD101214FF48010FFF779FF002111
:102B90004FF48010FFF774FF0BE07B680C4A934200
:102BA00007D101212020FFF78BFF00212020FFF714
:102BB00087FF00BF0837BD4680BD00BF0010014041
:102BC0000044004000480040004C004000500040DD
:102BD0000014014080B58AB000AF786039600023EE
:102BE0007B6200233B620023FB610023BB617B68A7
:102BF0001B8A9BB27B627B6A23F440537B623B68F7
:102C0000DB881A467B6A13437B627B6A9AB27B68D5
:102C10001A827B689B899BB27B627B6A23F4B053E8
:102C200023F00C037B623B689A883B681B89134343
:102C30009AB23B685B8913439BB21A467B6A134383
:102C40007B627B6A9AB27B689A817B689B8A9BB223
:102C50007B627B6A23F440737B623B689B891A46E4
:102C60007B6A13437B627B6A9AB27B689A8207F124
:102C700008031846FFF7F6FD7B68304A934203D0FD
:102C80007B682F4A934202D17B693B6201E03B693A
:102C90003B627B689B899BB21BB2002B0CDA3A6AC1
:102CA00013469B0013449A001A443B681B685B0060
:102CB000B2FBF3F3FB610BE03A6A13469B0013444B
:102CC0009A001A443B681B689B00B2FBF3F3FB615C
:102CD000FB691C4AA2FB03235B091B017B627B6A25
:102CE0001B09642202FB03F3FA69D31ABB617B68F8
:102CF0009B899BB21BB2002B0CDABB69DB00323321
:102D0000104AA2FB03235B0903F007037A6A13430B
:102D10007B620BE0BB691B0132330A4AA2FB03232F
:102D20005B0903F00F037A6A13437B627B6A9AB2F2
:102D30007B681A8100BF2837BD4680BD0010014066
:102D4000001401401F85EB5180B483B000AF786060
:102D50000B46FB70FB78002B08D07B689B899BB2ED
:102D600043F400539AB27B689A8107E07B689B89A1
:102D70009BB223F400539AB27B689A8100BF0C3750
:102D8000BD465DF8047B704780B483B000AF7860C7
:102D90000B467B807B88C3F308039AB27B689A80DA
:102DA00000BF0C37BD465DF8047B704780B483B02C
:102DB00000AF78607B689B889BB2C3F308039BB22B
:102DC00018460C37BD465DF8047B704780B487B069
:102DD00000AF78600B467B8013467B7000233B611D
:102DE0000023FB600023BB6000237B617B687B6169
:102DF0007B88DBB25B09DBB23B617B8803F01F039E
:102E0000FB600122FB6802FA03F3BB603B69012B04
:102E100003D17B690C337B6109E03B69022B03D151
:102E20007B6910337B6102E07B6914337B617B78C3
:102E3000002B06D07B6919687B69BA680A431A605F
:102E400006E07B691968BB68DA437B690A401A604F
:102E500000BF1C37BD465DF8047B704780B485B069
:102E600000AF78600B467B800023FB737B681B8878
:102E70009AB27B8813409BB2002B02D00123FB73D4
:102E800001E00023FB73FB7B18461437BD465DF859
:102E9000047B704780B487B000AF78600B467B80BE
:102EA0000023FB6000237B610023BB600023FB74D5
:102EB0007B88DBB25B09DBB2BB607B8803F01F035E
:102EC0007B6101227B6902FA03F37B61BB68012B02
:102ED00007D17B689B899BB21A467B6913407B6153
:102EE00011E0BB68022B07D17B681B8A9BB21A4694
:102EF0007B6913407B6106E07B689B8A9BB21A4624
:102F00007B6913407B617B881B0A9BB2FB600122BB
:102F1000FB6802FA03F3FB607B681B889BB21A46CE
:102F2000FB681340FB607B69002B05D0FB68002B1E
:102F300002D00123FB7401E00023FB74FB7C1846E4
:102F40001C37BD465DF8047B704780B400AF012399
:102F50001846BD465DF8047B704780B582B000AF6F
:102F60007860396000F090FE034616221A604FF038
:102F7000FF3318460837BD4680BD80B582B000AF2C
:102F800078604FF0FF317868FFF7E7FF00BFFDE79B
:102F900080B586B000AFF860B9607A6000237B61CD
:102FA0000AE0AFF300800146BB685A1CBA60CAB29F
:102FB0001A707B6901337B617A697B689A42F0DB26
:102FC0007B6818461837BD4680BD80B586B000AF17
:102FD000F860B9607A6000237B6109E0BB685A1C25
:102FE000BA601B781846AFF300807B6901337B61C0
:102FF0007A697B689A42F1DB7B6818461837BD46D0
:1030000080BD80B483B000AF78604FF0FF331846C6
:103010000C37BD465DF8047B704780B483B000AFC9
:10302000786039603B684FF400525A6000231846BC
:103030000C37BD465DF8047B704780B483B000AFA9
:103040007860012318460C37BD465DF8047B704755
:1030500080B485B000AFF860B9607A60002318468C
:103060001437BD465DF8047B7047000080B584B01E
:1030700000AF7860114B1B68002B02D10F4B104A38
:103080001A600E4B1B68FB600C4B1A687B6813447C
:103090006A46934207D900F0F7FD03460C221A60F6
:1030A0004FF0FF3306E0054B1A687B681344034A70
:1030B0001360FB6818461037BD4680BDC40300206E
:1030C00018050020002103E00A4B5B5843500431EF
:1030D00009480A4B42189A42F6D3094A02E00023F3
:1030E00042F8043B074B9A42F9D300F0D3FDFDF7B9
:1030F000A9FD7047CC5E000800000020F801002008
:10310000F801002014050020FEE72DE9FF4757ECE9
:10311000106B002F0C4619463B46BBBF07F100431E
:103120001F4600232D230B700D9BDDF830A0914628
:1031300023F02008BCBF32461646B8F1460F05D032
:10314000B8F1450F00D10134022100E0032103ABA7
:10315000019302AB009347EC106B5346224600F0FC
:1031600057FEB8F1470F054619D119F0010F0ED0DF
:1031700000EB04090022002330463946FDF7DCFC51
:1031800008B1CDF80C903022039B4B451ED3039B16
:103190000E9A5B1B2846136004B0BDE8F087B8F1B7
:1031A000460F00EB0409E5D10378302B0AD1002249
:1031B000002330463946FDF7BFFC18B9C4F10104BD
:1031C000CAF80040DAF800309944D3E7591C03915B
:1031D0001A70D9E7F7B50029BABF49422D232B232E
:1031E00009290270437029DD0DF1070425460A27DD
:1031F0002246B1FBF7F607FB1613303302F8013C09
:103200000B46632B04F1FF343146F1DC3031931E61
:1032100004F8011C411C1C46AB420AD30DF1090302
:103220009B1AA54238BF0023821C1344181A03B00E
:10323000F0BD13F8016B01F8016FEDE73023303179
:103240008370C170031DF1E72DE9F04F8DB00C467E
:10325000DDF8588016461F46054600F0CBFC036893
:1032600006931846FDF73CF800230A93D8F800307F
:1032700094F818A0D4F800B00790073323F00703A0
:10328000B3EC027B8DED047BC8F80030DDE90483EC
:1032900023F0004984ED127B9C4B4FF0FF324046F7
:1032A0004946FDF77BFC70BB984B4FF0FF32404620
:1032B0004946FDF755FC30BBDDE90401002200233F
:1032C000FDF744FC10B12D2384F84330904A914B14
:1032D000BAF1470F8CBF90469846032323612BF029
:1032E000040323604FF00009009733460BAA2146E0
:1032F000284600F0D1F9013040F08C804FF0FF30CB
:103300000DB0BDE8F08FDDE9042310461946FDF746
:1033100045FC40B1059B804A002BBCBF2D2384F89F
:1033200043307E4BD4E763685A1C0AF0DF093BD177
:10333000062363604BF480620023226003930AAB90
:10334000CDE901A309AB009361689DED040B0DF17C
:1033500023032846FFF7D9FEB9F1470F09998046A4
:1033600029D1C81C02DB63688B4241DAAAF1020A48
:103370005FFA8AFA0139524604F150000991FFF7C9
:1033800029FF0A9A1318012A8146236102DC226868
:10339000D20701D5013323619DF82330002BA3D040
:1033A0002D2384F843309FE7B9F1470FC2D1002B9A
:1033B000C0D10123BDE7BAF1650FDBD9BAF1660FC1
:1033C00018D1002963680BDD216113B92268D00789
:1033D00002D501330B442361A1654FF00009DBE7FF
:1033E00013B92268D20701D50233F4E70123F2E7CB
:1033F0004FF0670A0A9B8B4205DC23682161D807DE
:10340000EAD54B1CE7E70029D4BFC1F10202012233
:103410001344E0E723685A0507D42369424631463E
:103420002846B84701302BD168E7BAF1650F40F262
:10343000DD80D4E9120100220023FDF77DFB002886
:1034400033D0374A012331462846B84701303FF48C
:1034500055AFDDE90938434502DB2368D8070FD5AE
:10346000DDE9062331462846B84701303FF446AF30
:103470004FF0000908F1FF3804F11A0AC84509DCC9
:1034800023689B0700F10381E0680B9B9842B8BF5B
:10349000184635E70123524631462846B8470130E1
:1034A0003FF42CAF09F10109E8E7099B002B39DC57
:1034B0001B4A012331462846B84701303FF41EAF6E
:1034C000DDE9093959EA030302D12368D907D7D5C1
:1034D000DDE9062331462846B84701303FF40EAFF8
:1034E0004FF0000A04F11A0B099B5B42534501DCC3
:1034F0004B4693E701235A4631462846B8470130E8
:103500003FF4FCAE0AF1010AEEE700BFFFFFEF7FD8
:10351000A45B0008A05B0008AC5B0008A85B000887
:10352000B05B0008A36DDDF828A05345A8BF534643
:10353000002B994636DC4FF0000B29EAE97904F1BB
:103540001A02A36D0493A3EB09035B4531DC099BCD
:103550009A453ADC2368DA0737D4099BAAEB0309BA
:10356000049BAAEB03039945A8BF9946B9F1000F44
:1035700033DC4FF0000829EAE97904F11A0B099BC2
:10358000AAEB0303A3EB090343457FF779AF0123BC
:103590005A4631462846B84701303FF4AFAE08F1ED
:1035A0000108ECE7424631462846B8470130C2D10F
:1035B000A4E60123314628460492B84701303FF47F
:1035C0009DAE049A0BF1010BBBE7DDE90623314602
:1035D0002846B8470130C0D190E6049A4B46424491
:1035E00031462846B8470130C3D187E6DDF828A028
:1035F000BAF1010F01DCDB0736D501234246314623
:103600002846B84701303FF479AEDDE9062331465C
:103610002846B84701303FF471AED4E912010022C8
:1036200000230AF1FF3AFDF787FAC0B9534608F1C3
:10363000010231462846B84701300CD15EE601232D
:103640005A4631462846B84701303FF457AE08F194
:103650000108D045F3DB4B4604F15002DFE64FF0A2
:10366000000804F11A0BF4E701234246E1E70123C5
:103670004A4631462846B84701303FF43FAE08F18C
:103680000108E3680B995B1A4345F0DCFCE64FF058
:10369000000804F11909F4E72DE9F04716469846A9
:1036A0008A680B69DDF820909342B8BF13463360F7
:1036B00091F8432007460C460AB101333360236872
:1036C000990642BF336802333360256815F006055A
:1036D00006D104F1190AE36832689B1AAB4226DC72
:1036E00094F843302268003B18BF012392062BD484
:1036F00004F1430241463846C84701301ED02368D2
:10370000226903F00603042B02BFE5683368ED1A53
:10371000A3680CBF25EAE57500259342C4BF9B1A38
:10372000ED1800261A34B5421AD1002008E0012312
:10373000524641463846C847013003D14FF0FF306A
:10374000BDE8F0870135C6E7E1185A1C302081F842
:103750004300224494F8451082F843100233C7E72F
:103760000123224641463846C8470130E6D001369B
:10377000D9E700002DE9FF470F7E0C9E782F914678
:1037800080460C469A4601F1430207D8622F0AD8B8
:10379000002F00F0D280582F00F0B78004F14206CD
:1037A00084F842703AE0A7F16303152BF6D801A123
:1037B00051F823F00D380008213800089D37000823
:1037C0009D3700089D3700089D3700082138000804
:1037D0009D3700089D3700089D3700089D37000879
:1037E000213900084B380008D73800089D370008F9
:1037F0009D370008433900089D3700084B38000802
:103800009D3700089D370008DF38000833681A1D0F
:103810001B68326004F1420684F8423001239DE0C7
:1038200033682068191D3160060601D51D6803E064
:103830004506FBD5B3F90050002D03DA2D236D4268
:1038400084F8433059480A2310E021683368080699
:1038500053F8045B02D4490648BFADB26F2F5348FA
:10386000336059D10823002184F843106668A660AC
:10387000002E05DB21682E4321F0040121604DD08C
:103880001646B5FBF3F103FB1157C75D06F8017D42
:103890002F46BB420D46F4D9082B0BD12368DF0716
:1038A00008D5236961689942DEBF302306F8013CE0
:1038B00006F1FF36921B2261CDF800A04B4603AA09
:1038C00021464046FFF7E8FE01304CD14FF0FF3073
:1038D00004B0BDE8F087236843F020032360344838
:1038E000782784F84570236831681F0651F8045B17
:1038F00002D45F0648BFADB23160D90744BF43F080
:10390000200323601DB11023ADE72848E9E72368B1
:1039100023F020032360F6E70A23A4E71646BBE75B
:10392000336825686169181D30602E061B6801D553
:10393000196002E06806FBD5198000232361164652
:10394000BAE733681A1D32601E686268002130468B
:10395000FCF776FC08B1801B60606368236100237C
:1039600084F84330A8E72369324649464046D047A9
:103970000130ABD023689B0713D4E068039B9842C7
:10398000B8BF1846A4E70123324649464046D0470F
:1039900001309BD00135E36803995B1AAB42F2DC3E
:1039A000EBE7002504F11906F5E700BFB25B00085C
:1039B000C35B0008002310B50446C0E90033C0E92A
:1039C0000433836081814366C28183611946082282
:1039D0005C3000F007F90D4B63620D4BA3620D4B99
:1039E000E3620D4B23630D4B24629C4206D003F12E
:1039F0006802944202D0D0339C4205D104F15800B1
:103A0000BDE8104000F06AB910BD00BF3D3B0008A2
:103A10005F3B0008973B0008BD3B0008C80300203F
:103A2000024A0349034800F06BB800BF3000002091
:103A3000F55300084000002041680C4B994210B536
:103A4000044601D001F0D6FCA168094B994202D08E
:103A5000204601F0CFFCE168064B994204D0204695
:103A6000BDE8104001F0C6BC10BD00BFC803002077
:103A700030040020980400200C4B0D4A0D4810B56E
:103A800004211A600022FFF795FF0A4B01221C4611
:103A9000092103F16800FFF78DFF04F1D000022235
:103AA000BDE810401221FFF785BF00BF00050020D0
:103AB000213A0008C8030020014800F010B900BFF7
:103AC00009050020014800F00BB900BF09050020DE
:103AD00010B50446FFF7F0FF236A1BB1BDE81040A4
:103AE000FFF7F0BF044B2362044B1B68002BF5D19A
:103AF000FFF7C2FFF2E700BF393A000800050020D7
:103B00002DE9F8430746884614460026D4E9019576
:103B1000B9F1010905D52468002CF7D13046BDE87C
:103B2000F883AB89012B07D9B5F90E30013303D0E7
:103B300029463846C04706436835E9E710B50C46C4
:103B4000B1F90E1000F07CF80028ABBF636DA389BB
:103B50001B1823F48053ACBF6365A38110BD2DE90E
:103B6000F0411F468B89DB0505460C46164605D5F8
:103B7000B1F90E100223002200F050F8A389B4F925
:103B80000E1023F48053A38132463B462846BDE8FD
:103B9000F04100F067B810B50C46B1F90E1000F016
:103BA0003DF8B4F90C30421C0BBF23F4805343F4AE
:103BB0008053A381A38118BF606510BDB1F90E10B9
:103BC00000F01CB810B501390244904201D1002028
:103BD00005E0037811F8014FA34201D0181B10BD76
:103BE0000130F2E702440346934200D1704703F8E4
:103BF000011BF9E7004870477C01002038B5064DED
:103C00000023044608462B60FFF7FBF9431C02D152
:103C10002B6803B1236038BD0405002038B5074D7B
:103C200004460846114600222A601A46FFF710FA99
:103C3000431C02D12B6803B1236038BD040500206A
:103C400038B5074D04460846114600222A601A4638
:103C5000FFF79EF9431C02D12B6803B1236038BDE6
:103C60000405002038B5074D0446084611460022D9
:103C70002A601A46FFF7A9F9431C02D12B6803B149
:103C8000236038BD04050020014B1868704700BF51
:103C90003C00002070B50D4B0D4D5B1B9C100026A9
:103CA000A64209D101F0E0FE0A4D0B4B5B1B9C10B4
:103CB0000026A64205D170BD55F8043B9847013651
:103CC000EEE755F8043B98470136F2E7C45E00087A
:103CD000C45E0008C45E0008C85E000870477047F4
:103CE00070470A44914200F1FF3300D1704710B58C
:103CF00011F8014B03F8014F9142F9D110BD2DE9A4
:103D0000F74F03690C69A34207467EDB013C01F1D2
:103D10001408A30000F11405009305EB840301933C
:103D200058F8243055F8242001339A4208EB8409CE
:103D3000B2FBF3F62ED34FF0000AC446AE46D3468C
:103D40005CF8043B98B206FB00A0020C1B0C06FBBF
:103D50000323DEF8002080B292B2121A5A44DEF831
:103D600000004FEA134A9BB2C3EB224303EB10431C
:103D700092B242EA0342E1454EF8042B4FEA234B4C
:103D8000DED2009BEB582BB9019B043B9D421A46A7
:103D90002FD33C61384601F09FF9002825DB2946E6
:103DA000002058F8042BD1F800C01FFA82FE1FFA39
:103DB0008CF3A3EB0E030344120CC2EB234202EB81
:103DC0001C429BB243EA0243C14541F8043B4FEA1F
:103DD0002240E6D255F8242005EB840322B9043BA7
:103DE0009D421A460BD33C610136304603B0BDE814
:103DF000F08F1268043B002ACBD1013CC6E7126861
:103E0000043B002AEFD1013CEAE70020EEE7000086
:103E10002DE9F04F99B08DED0E0B0C92C269229CEA
:103E20000A9157EC106B8146139382B9102000F071
:103E300021FE0246C9F81C0020B9B14BEF21B14860
:103E400001F010FB0023C0E901330360C360116877
:103E500059B152684A60012393408B60484600F094
:103E6000FDFED9F81C3000221A60B7F10008B5BF7A
:103E70000123002323602360A34BBCBF28F000482C
:103E8000CDF83C8033EA08031AD1139AC8F313081B
:103E900042F20F7358EA0608136000F07485239B02
:103EA00053B99A4B21E09A4B00930833239A13603D
:103EB000009819B0BDE8F08F944B00930333F5E7F9
:103EC0009DED0E7B002251EC170B00238DED067B40
:103ED000FCF732FE824650B1139A01231360239BF4
:103EE00013B1239A8B4B13608B4B0093E0E79DED4E
:103EF000060B16AA17A9484601F0A2F95FEA185462
:103F0000169D019000F08280079BCDF850A0C3F36E
:103F10001303DDE9060143F07F5343F44013A4F299
:103F2000FF34194600227D4BFCF7E6F96EA3D3E976
:103F30000023FCF799FB6EA3D3E90023FCF7DEF91D
:103F4000064620460F46FCF725FB6BA3D3E900236A
:103F5000FCF78AFB02460B4630463946FCF7CEF9A1
:103F600006460F46FCF730FE00228046002330460E
:103F70003946FCF7EBFD48B14046FCF70BFB3246F7
:103F80003B46FCF7D9FD08B908F1FF38B8F1160F28
:103F900059D8634B03EBC803D3E90023DDE90601DD
:103FA000FCF7D4FD002850D008F1FF38002312930D
:103FB0002D1B6B1E089343BF0023C5F10107089317
:103FC0000027B8F1000F42DB089BCDF83480434452
:103FD0000893002309930A9B092B6CD8052BC4BFB7
:103FE000043B0A930A9BA3F10203CCBF00240124E3
:103FF000032B6CD801A252F823F000BFAF40000899
:10400000B3400008754000085F400008179C2C442E
:1040100004F23243202BC1BFC3F1400308FA03F876
:1040200004F2124326FA03F3D6BFC3F1200348EA91
:10403000030006FA03F0FCF79DFA0122A1F1F873E0
:10404000013C14926DE70123B1E71290B0E7C8F18B
:10405000000309930023A7EB08070D93BBE7012397
:104060000B930C9B434405930133012B0493B8BF7E
:10407000012306E001230B930C9B002B2ADDCDE9E5
:104080000433D9F81C000021042202F114059D42DA
:1040900001F1010623D94160484600F0A1FD0090DE
:1040A000002841D11F4B024640F2AF11C7E6002362
:1040B000E1E70023D4E701240023CDE90A344FF0DF
:1040C000FF33CDE90433002212230C92D9E70123F8
:1040D0000B93F4E70123CDE904331A46F5E75200C8
:1040E0003146D2E7AFF3008061436F63A787D23FC9
:1040F000B3C8608B288AC63FFB799F501344D33FD7
:10410000E15B0008F85B00080000F07FDD5B000861
:10411000D45B0008B15B0008B05B00080000F83F0A
:10412000F05C0008245C0008D9F81C30009A1A6082
:10413000049B0E2B00F2A180002C00F09E80B8F1B1
:10414000000F36DD9E4B08F00F0203EBC20318F49C
:10415000807FD3E900AB4FEA281516D0994BDDE9F3
:104160000601D3E90823FCF7A9FBCDE9020105F01C
:104170000F050324934E75B9DDE9020152465B46F3
:10418000FCF79CFB82468B462DE09DED067B0224CE
:104190008DED027BEEE7E90708D550465946D6E992
:1041A0000023FCF761FA013482468B466D10083615
:1041B000E1E700F0AD80C8F10005814B814E05F0CC
:1041C0000F0203EBC203D3E90023DDE90601FCF78C
:1041D0004BFA2D1182468B4600230224002D40F01D
:1041E0008C80002BCED1129B002B00F09580764B5B
:1041F000002250465946FCF7A9FC002800F08C80AC
:10420000049B002B00F08880059B002B35DD08F116
:10421000FF330293504659466C4B0022FCF724FAB8
:10422000059E82468B4601342046FCF7B3F9524680
:104230005B46FCF719FA664B0022FCF75FF8044670
:10424000A1F15075CDE91045002E69D1614B0022D6
:1042500050465946FCF750F822462B4682468B467C
:10426000FCF792FC002840F09482224605F10043BE
:1042700050465946FCF76AFC20BB179B002BC0F246
:104280006081B8F10E0F00F35C814D4B03EBC80366
:10429000D3E900AB0C9B002B80F2EE80049B002B3B
:1042A00000F3EA800ED14B4B002250465946FCF7F2
:1042B000DBF902460B46DDE90601FCF751FC00285C
:1042C00000F06A8200252C460C9B009EDB43029383
:1042D000274600242946484600F0C0FC002F00F085
:1042E000C1802CB1BC4203D02146484600F0B6FC48
:1042F0003946484600F0B2FCB4E0EA0705D5D6E9F5
:104300000023FCF7B1F9013401236D10083665E78D
:10431000DDE906AB022466E7049ECDF8088083E75A
:10432000274B03EBC60353E902010B9B002B55D02F
:1043300002460B4600202849FCF7C0FADDE91023AD
:10434000FBF7DAFF009BCDE910019D191E46594687
:104350005046FCF739FC0446FCF71CF902460B46B4
:1043600050465946FBF7C8FF3034DDE9102306F804
:10437000014B82468B46FCF7E9FB002872D152467E
:104380005B4611490020FBF7B7FFDDE91023FCF77E
:10439000DDFB002840F0B680AE423FF46EAFDDE9B1
:1043A00010010A4B0022FCF75FF9084BCDE9100120
:1043B000002250465946FCF757F982468B46C6E71D
:1043C000F05C0008C85C00080000F03F00002440DA
:1043D00000001C40000014400000E03FDDE9102315
:1043E000FCF742F9009B009DCDE910013344159381
:1043F00059465046FCF7E8FB0446FCF7CBF830344E
:104400000B46024659465046FBF776FF05F8014B2E
:10441000159B9D4282468B4627D1009B0022DDE9F9
:1044200010011E44B34BFBF769FF02460B46504692
:104430005946FCF7A9FB002864D1DDE91023AD49FA
:104440000020FBF759FF02460B4650465946FCF741
:104450007DFB00283FF411AF334616F8012D302ABA
:10446000FAD01E46DDF808803AE0A34B0022FCF7A4
:10447000FBF882468B46BBE7009E52465B46DDE971
:104480000601FCF71BFAFCF79FFB0746FCF782F8D6
:1044900052465B46FCF7E8F802460B46DDE90601AA
:1044A000FBF72AFF07F1300C009C06F801CBA6EBC6
:1044B000040C049C644502460B4633D1FBF71EFFF7
:1044C00052465B4604460D46FCF75EFBC0B95246B9
:1044D0005B4620462946FCF72FFB08B1FB070FD4AB
:1044E0000199484600F0BAFB0023139A337008F193
:1044F00001031360239B002B3FF4DAAC1E60D7E46A
:10450000CDF8088033461E4613F8012D392A06D10E
:10451000009A9A42F7D1029A013202923022013275
:104520001A709FE7744B0022FCF79EF802460B4678
:10453000CDE9062300220023FCF7FEFA00289CD0D8
:10454000CEE70B9A002A00F0E3800A9A012A00F3D2
:10455000C280149A002A00F0BA8003F23343099D06
:104560003E46089A01211A4448461F44089200F02A
:1045700029FC044656B1089B002B07DDB342089A7C
:10458000A8BF3346FF1AF61AD31A0893099B0BB338
:104590000B9B002B00F0C380002D00F0BD80214656
:1045A0002A46484600F0CEFC019A01460446484699
:1045B00000F01EFC01998246484600F04FFB099B23
:1045C0005B1B099300F0AE80099A5146484600F003
:1045D000B9FC01900121484600F0F4FB0D9B054613
:1045E000002B00F0D7811A460146484600F0AAFC8D
:1045F0000A9B012B054600F39D800E9B002B40F08B
:1046000094800F9BC3F31303002B40F08E800F9B0D
:1046100023F000431B0D1B05002B00F08980089B35
:104620000133013708934FF0010A0D9B002B00F076
:10463000B7812B6905EB8303186900F077FBC0F1A4
:104640002000089B184410F01F007ED0C0F120030A
:10465000042B72DD089BC0F11C0003440744064490
:104660000893002F05DD01993A46484600F0C6FC44
:104670000190089B002B05DD29461A46484600F0AC
:10468000BDFC0546129B002B61D00198294600F025
:1046900023FD00285BDA08F1FF3302930199002320
:1046A0000A22484600F0FCFA0B9B0190002B00F018
:1046B0007981002321460A22484600F0F1FA059B41
:1046C000002B044672DC0A9B022B49DC6EE0169B31
:1046D000C3F1360343E7049B5D1E099BAB420DDB30
:1046E0005D1B049B002BBFF63BAF049BFE1A00230F
:1046F00037E700BF0000E03F00002440099B0D9A0F
:104700000995EB1A1A440D92049B3E46002528E7B2
:10471000099D0B9C3E462DE7DDF804A054E7099A5D
:10472000019953E7CDF804A054E74FF0000A7CE765
:104730009A467AE74FF0000A7BE792D0089A1C333A
:104740001A441F441E4408928BE70346F6E7049B75
:10475000CDF80880002B23DC05930A9B022B21DD7A
:10476000059B002B7FF4B0AD29460522484600F09A
:1047700097FA01460546019800F0AEFC00287FF745
:10478000A3AD009E312306F8013B029B0133029347
:104790009EE535462C46F4E7049DCDF80880F9E700
:1047A000049B05930B9B002B00F00081002E05DD80
:1047B00021463246484600F021FC0446BAF1000F7B
:1047C0005AD06168484600F00BFA064628B9824B79
:1047D000024640F2EF21FFF732BB2269023292001B
:1047E00004F10C010C30FFF77CFA012231464846F7
:1047F00000F004FC0746009B009A03F1010B059BA7
:10480000134406930E9B03F0010308930BF1FF334F
:10481000294601980493FFF772FA2146059000F1AA
:10482000300A019800F058FC3A468046294648462E
:1048300000F06EFCC268064602BB0146019800F01B
:104840004BFC024631464846099200F007FADDE982
:10485000092342EA0301089B19435E4610D1BAF1CD
:10486000390F2BD0B8F1000F02DD059B03F1310A9F
:10487000049B83F800A02DE52746BCE70122E1E771
:10488000B8F1000F06DB0A9B48EA0308089B58EAC8
:10489000030820D1002AEBDD01990122484600F0EF
:1048A000ADFB2946019000F017FC002803DCDFD1A6
:1048B0001AF0010FDCD0BAF1390FD6D1049A39239E
:1048C000137033461E46013B16F8012C392A52D08C
:1048D00001321A70FEE4002A07DDBAF1390FEDD07B
:1048E000049A0AF101031370F4E4069B0BF801AC7F
:1048F0005B452AD0019900230A22484600F0D0F9EE
:10490000BC4201904FF000034FF00A022146484696
:1049100006D100F0C5F9044607460BF1010B75E717
:1049200000F0BEF93946044600230A22484600F04A
:10493000B7F90746F1E7059B5E1E002B009BD8BF29
:1049400000265A1C27461644002401990122484695
:1049500000F054FB2946019000F0BEFB0028B0DCBB
:1049600002D11AF0010FACD133461E4613F8012DC7
:10497000302AFAD0AEE4009A9A42A3D1029B0133C6
:1049800002933123AFE7239B002B7FF48CAA134BB8
:10499000FFF7ABBA0A9B012B7FF72FAEDDF834A0EF
:1049A00001204EE6059B002B7FF7D7AE009E0198B5
:1049B0002946FFF7A4F900F1300A009B06F801AB85
:1049C000F21A059B9342B6DD019900230A2248465C
:1049D00000F066F90190EAE7245C0008D45B000867
:1049E00038B50546002941D051F8043C0C1F002B76
:1049F000B8BFE41800F0E8F81D4A136833B96360E3
:104A000014602846BDE8384000F0E4B8A34208D955
:104A1000206821188B4201BF19685B680918216062
:104A2000EDE71A465B680BB1A342FAD9116850183A
:104A3000A0420BD120680144501883421160E0D19C
:104A400018685B68536008441060DAE702D90C23E9
:104A50002B60D6E7206821188B4204BF19685B6879
:104A6000636004BF091821605460CAE738BD00BF05
:104A700010050020024B0146186800F025B800BF61
:104A80003C00002070B50F4E0C463168054611B948
:104A900000F0D8FC30602146284600F0D3FC431CCF
:104AA00003D14FF0FF34204670BDC41C24F0030432
:104AB000A042F8D0211A284600F0C4FC0130F2D1FF
:104AC000EFE700BF0C0500202DE9F843CD1C25F0D1
:104AD000030508350C2D38BF0C25002D064601DBDB
:104AE000A94204D90C2333600020BDE8F883DFF825
:104AF000D48000F069F8D8F800301C4644BB294641
:104B00003046FFF7BFFF431C044658D1D8F8004099
:104B10002746002F43D1002C4BD02368394630461E
:104B200004EB030900F08EFC814542D121686D1A27
:104B300029463046FFF7A6FF01303AD023682B44C0
:104B40002360D8F800305A6862BBC8F800700FE0E4
:104B50002268521B20D40B2A17D96119A342256061
:104B600018BF5960636808BFC8F8001062514B60F5
:104B7000304600F02FF804F10B00231D20F0070051
:104B8000C21A1CBF1B1AA350AFE76268A3420CBF36
:104B9000C8F800205A60EBE723466468AEE73C465D
:104BA0007F68B6E71A465B68A342FBD100235360D7
:104BB000DEE70C233360304600F00CF894E7056024
:104BC000D6E700BF100500200148FFF788B800BFF6
:104BD000080500200148FFF783B800BF0805002042
:104BE00070B5C46905460E4684B91020FFF742FF30
:104BF0000446E86128B90246164B17486B2100F0BD
:104C000031FC0023C0E901330360C360E36853B99A
:104C100021220421284600F043FCEB69E060DB68B8
:104C20000BB9002070BD53F8260030B1026843F87C
:104C300026200023C0E90333F4E7012101FA06F43A
:104C4000621D9200284600F02BFC0028E9D0C0E944
:104C50000164EEE7E15B0008355C000870B5C669E9
:104C600005460C4676B91020FFF704FF0246E861BE
:104C700020B9094B09488F2100F0F4FBC0E9016617
:104C80000660C6603CB1EB696268DB6853F82210CD
:104C9000216043F8224070BDE15B0008355C0008EC
:104CA0002DE9F0410D6907460C461E4601F1140C32
:104CB0000020DCF8003099B202FB01611E0C0B0CE5
:104CC00002FB063389B2013001EB034185424CF807
:104CD000041B4FEA1346ECDC0EB3A368AB4219DCAD
:104CE000616838460131FFF77BFF804628B90246EC
:104CF0000C4B0D48BA2100F0B5FB2269023204F1D9
:104D00000C0192000C30FEF7ECFF21463846FFF70D
:104D1000A5FF444604EB850301355E61256120460D
:104D2000BDE8F081245C0008355C0008B0F5803FE8
:104D3000034636BF030400201020B3F1807F3CBF40
:104D40001B020830B3F1805F3CBF1B010430B3F19C
:104D5000804F3CBF9B000230002B05DB13F0804FDF
:104D600000F1010008BF202070470368024613F0DD
:104D700007000BD0D90721D4980749BF5B089B08CF
:104D8000012013605CBF13600220704799B209B91B
:104D90001B0C1020D9B209B908301B0A190704BF2F
:104DA0001B090430990704BF9B080230D90703D4BC
:104DB0005B0800F1010003D01360704700207047CA
:104DC0002020704710B50C460121FFF709FF02466D
:104DD00028B9054B054840F2451100F043FB01237B
:104DE0004461036110BD00BF245C0008355C00080D
:104DF0002DE9F04FD1F81090D2F810A0D14585B030
:104E00008846144604DB53460C46CA4690469946EB
:104E1000A36861680AEB0906B342B8BF0131FFF726
:104E2000DFFE30B90246454B45484FF4B17100F002
:104E300019FB00F1140505EB86072B460022BB4247
:104E40001FD304F1140C08F114010CEB8A0301EBDD
:104E5000890202921A1B153A22F0030215349C4271
:104E600088BF00220192029A03918A420CD8002E38
:104E700003DD57F8043D002B5DD0066105B0BDE8A9
:104E8000F08F43F8042BDAE7B1F800A0BAF1000F75
:104E900024D0E046A9464FF0000E58F8042BD9F86C
:104EA00000401FFA82FBA4B20AFB0B444FEA124BEC
:104EB000D9F8002074444FEA124E0AFB0BE202EBD1
:104EC0001442A4B244EA0244434549F8044B4FEA71
:104ED000124EE2D8019AAA18C2F804E0039AB2F876
:104EE00002800431B8F1000F23D02A68E6469146CB
:104EF000AA464FF0000BBEF8004008FB04B404EBD8
:104F0000194492B242EA04424AF8042B5EF8042B98
:104F1000DAF800904FEA124B1FFA89F208FB0B22D5
:104F200002EB144273454FEA124BE4D8019C2C1952
:104F30006260043597E7013E99E700BF245C0008F2
:104F4000355C00082DE9F843174612F0030280464D
:104F50000D4607D0264C013A002354F82220FFF7D3
:104F60009FFE0546BF103FD0D8F81C4094B91020D2
:104F7000FFF780FD0446C8F81C0030B902461D4BFF
:104F80001D4840F2B31100F06DFA0023C0E901336F
:104F90000360C360A66846B940F271214046FFF73E
:104FA00011FF0023A060064603602C464FF0000965
:104FB00007F001037F1053B1294632464046FFF700
:104FC00017FF214605464046FFF748FE67B13068A7
:104FD00038B9324631464046FFF70AFF3060C0F824
:104FE000009006462C46E3E72846BDE8F88300BF5C
:104FF000BC5C0008E15B0008355C00082DE9F84F57
:105000000C464968236903EB6218A36807461546F6
:105010004FEA621A08F101094B450BDB3846FFF7EE
:10502000DFFD064648B90246294B2A484FF4EF7186
:1050300000F018FA01315B00EEE7002300F1140CD8
:1050400000F110021946534535DB22692AEAEA7A53
:105050000CEB8A0C04F1140315F01F0E614603EBF0
:1050600082022CD0CEF1200A002518688B4600FA67
:105070000EF02843CBF8000053F8045B9A4201F18C
:10508000040125FA0AF5F0D8131B153B23F003039E
:1050900004F115018A4238BF00239C44CCF8045027
:1050A00005B9C1463846C6F810902146FFF7D6FD2F
:1050B0003046BDE8F88F42F8041F0133C3E753F8C8
:1050C000045B0D609A4201F10401F8D8E9E700BFE2
:1050D000245C0008355C00080A6903460069801AF0
:1050E00030B50ED11433143103EB820401EB82018D
:1050F00054F8045D51F8042D954203D005D24FF0C9
:10510000FF3030BDA342F3D3FBE70120F9E70000F5
:105110002DE9F74F8A460646114650461446FFF7DA
:10512000DBFF051E12D129463046FFF759FD024626
:1051300028B9414B40F23721404800F093F9012350
:10514000C0E90435104603B0BDE8F08FBCBF53463C
:10515000A2463046DAF80410BABF1C4601250025E5
:10516000FFF73EFD024618B9334B40F24521E3E715
:10517000DAF810702669C5600AF1140904F1140EFA
:1051800000F114050AF1100309EB87080EEB8606FF
:105190000193AB464FF0000C019B5EF8040B53F8F3
:1051A00004AF01931FFA8AF3194683B2CB1A000C9D
:1051B0006344C0EB1A4000EB23409BB243EA004338
:1051C00076454BF8043B4FEA204CE5D8331B153BA2
:1051D000153423F00303A64238BF0023E8184B44DC
:1051E0001C1D04302646A5EB0905464506EB050EB9
:1051F0000ED308F10301091B21F003010133984587
:1052000038BF0021014451F8043D9BB1176199E773
:1052100056F8041BE2464FEA11491CFA81FC51443E
:1052200009EB2C4989B241EA09414FEA294CCEF8F1
:105230000010DAE7013FE6E7245C0008355C00086F
:105240002DE9F7430F46012159EC108B1646FFF765
:10525000C7FC044630B90246234B244840F20F31C4
:1052600000F000F9C9F30A55C9F313030DB143F473
:1052700080130193B8F1000323D068460093FFF731
:1052800074FD0099D8B1019AC0F1200302FA03F32A
:105290000B43C24063610192019BA361002B0CBFD1
:1052A000012202222261A5B1A5F2334505443D60E9
:1052B000C0F135003060204603B0BDE8F083616185
:1052C000EAE701A8FFF751FD019B6361203001224D
:1052D000E8E704EB8203A0F2324038601869FFF778
:1052E00025FDC0EB4210E5E7245C0008355C0008B2
:1052F000B1F90C202DE9F041160705460C4651D4B2
:105300004B68002B02DC0B6C002B49DDE66A002E9B
:1053100046D0002312F480522F682B6031D0626D8A
:10532000A389590705D56368D21A636B0BB1236C47
:10533000D21A0023E66A216A2846B047421CB4F913
:105340000C3006D129681D2946D8294ACA40D607FB
:1053500042D500226260D9042269226004D5421C31
:1053600001D12B6803B96065616B2F60C1B104F195
:105370004403994202D02846FFF732FB00236363BF
:105380000EE0216A01232846B0470246501CC7D1CF
:105390002B68002BC4D01D2B01D0162B1AD12F60E7
:1053A00000201EE00F69002FFAD093070E6808BF97
:1053B0004B690F6018BF0023A6EB07088B60B8F19C
:1053C000000FEDDD216AA66A43463A462846B047FB
:1053D000002808DCB4F90C3043F04003A3814FF0FF
:1053E000FF30BDE8F0810744A8EB0008E7E700BF05
:1053F0000100402038B50B6905460C4613B900255D
:10540000284638BD18B1036A0BB9FEF761FBB4F941
:105410000C30002BF3D0626ED00704D4990502D46F
:10542000A06DFEF75CFC28462146FFF761FF636E26
:10543000DA070546E4D4A3899B05E1D4A06DFEF705
:105440004FFCDDE738B5064D0023044608462B60C7
:10545000FDF70CFE431C02D12B6803B1236038BD5D
:10546000040500201FB514461A46094B1B68054663
:10547000D8684CB1074B0091CDE9013406492B4661
:1054800000F042F800F052F8044B1C46F3E700BF6E
:105490003C0000206C5C0008795C0008A75C0008F8
:1054A00070B5A1FB025434B92946FFF70DFB06463F
:1054B00028B9304670BD0C2202600026F9E72A4662
:1054C0002146FEF78FFBF4E782B001B901A942B192
:1054D0004BB113780B601278101E18BF012002B078
:1054E00070471046FBE76FF00100F8E703460846F7
:1054F00041B1FF2A04D98A221A604FF0FF30704769
:105500000A700120704700000EB403B5014603ABDA
:10551000054853F8042B0068019300F037F802B0F7
:105520005DF804EB03B070473C00002008B506208E
:1055300000F0FEF90120FDF720FD9368013B002BF0
:1055400010B4936008DA9469A34201DB0A2903D1FD
:105550005DF8044B00F032B91368581C10601970E4
:1055600008465DF8044B7047F8B506460F461446EA
:10557000D518AC4201D1002007E014F8011B3A46CF
:105580003046FFF7DAFF431CF3D1F8BD2DE9F04FA9
:105590000D469DB014469846064618B1036A0BB9ED
:1055A000FEF796FA6B6ED90705D4AB899A0502D43B
:1055B000A86DFEF794FBAB891B0701D52B699BB93E
:1055C0002946304600F038F970B16B6EDC0704D51F
:1055D0004FF0FF301DB0BDE8F08FAB899805F7D4D0
:1055E000A86DFEF77DFBF3E70023099320238DF8D8
:1055F0002930CDF80C803023DFF8AC818DF82A30CB
:105600004FF0010923469A4613F8012B0AB1252AC7
:10561000F9D1BAEB040B0BD05B4622462946304643
:10562000FFF7A2FF013000F0A780099A5A440992BF
:105630009AF80030002B00F09F8000234FF0FF32DB
:10564000CDE905230AF1010A049307938DF853303D
:105650001A935446052214F8011B5348FAF7F0FD3B
:10566000049AD8B9D10644BF20238DF853301307CC
:1056700044BF2B238DF853309AF800302A2B15D0D5
:10568000079A544600204FF00A0C214611F8013BBE
:10569000303B092B4BD9B0B1079214E0A0EB0803C3
:1056A00009FA03F313430493A246D2E7039B191D9F
:1056B0001B680391002BBBBF5B4242F002020793C1
:1056C0000793B8BF049223782E2B0AD163782A2B34
:1056D00032D1039B1A1D1B68039243EAE373023421
:1056E0000593DFF8D4A0217803225046FAF7A8FDED
:1056F00038B1049BA0EB0A004022824013430134DE
:10570000049314F8011B29488DF828100622FAF793
:1057100097FD00283FD0264B1BBB039B073323F08C
:10572000070308330393099B3B4409936AE70CFB87
:1057300002320C460120A8E70023013405931946E4
:105740004FF00A0C204610F8012B303A092A03D9F1
:10575000002BC6D00591C4E70CFB012104460123B0
:10576000F0E703AB00932A46124B04A93046FDF73D
:105770006BFD0746781CD6D16B6ED90705D4AB8973
:105780009A0502D4A86DFEF7ABFAAB895B063FF52C
:105790001FAF09981EE703AB00932A46054B04A9E7
:1057A0003046FDF7E7FFE4E7A85C0008B25C0008BC
:1057B0004932000869550008AE5C0008F8B50E468D
:1057C0001446054618B1036A0BB9FEF781F9A369BF
:1057D000A360A3891A0701D5236943B92146284646
:1057E00000F02AF818B14FF0FF373846F8BD2368AB
:1057F0002269981A6369F6B28342374605DC21466E
:105800002846FFF7F7FD0028EDD1A368013BA36010
:1058100023685A1C22601E706269431C9A4204D09D
:10582000A389DB07E1D50A2EDFD121462846FFF701
:10583000E1FD0028D9D0D6E738B5284B05461868D1
:105840000C4618B1036A0BB9FEF742F9B4F90C30F3
:10585000190721D4DA0607D409222A6043F040034D
:10586000A3814FF0FF3031E0580712D5616B41B191
:1058700004F14403994202D02846FFF7B1F800230F
:1058800063630022B4F90C3062602269226023F065
:10589000240343F00803A381226942B903F420736F
:1058A000B3F5007F03D02146284600F081F8B4F913
:1058B0000C3013F001020AD00022A2606269524249
:1058C000A261226942B913F08000C7D138BD99079F
:1058D00058BF6269A260F4E70020F7E73C000020AF
:1058E0001F2938B505460C4604D9162303604FF02E
:1058F000FF3038BDC26B12B152F821304BB9284687
:1059000000F030F8224601462846BDE8384000F055
:1059100017B8012B0AD0591C03D1162303600120AC
:10592000E7E7002142F82410204698470020E0E7EE
:10593000024B01461868FFF7D3BF00BF3C000020B0
:1059400038B5074D00230446084611462B60FDF785
:1059500004FB431C02D12B6803B1236038BD00BF98
:1059600004050020FDF7F1BA70B50C46B1F90E1030
:10597000002996B015461E460ADAA18911F0800169
:1059800013D14FF48062002031602A6016B070BDE0
:105990006A4600F047F80028EFDB019901F47041F6
:1059A000A1F5005359425941EBE700214022EAE7B3
:1059B0008B8973B59E0705460C4607D504F147034E
:1059C000236023610123636102B070BD01AB6A46AD
:1059D000FFF7CAFF009E28463146FFF775F8B4F975
:1059E0000C3038B99A05EFD423F0030343F00203D7
:1059F000A381E3E743F08003A381019B2060C4E916
:105A00000406002BE0D0B4F90E10284600F01CF874
:105A10000028D9D0A38923F0030343F00103A38115
:105A2000D2E7000038B5074D00230446084611466A
:105A30002B60FDF7F2FA431C02D12B6803B12360FF
:105A400038BD00BF0405002038B5064D00230446CC
:105A500008462B60FDF7F1FA431C02D12B6803B115
:105A6000236038BD04050020F8B500BFF8BC08BCB1
:105A70009E467047F8B500BFF8BC08BC9E4670470C
:105A8000000102030405060708090A0B0C0D0E0F9E
:105A9000637C777BF26B6FC53001672BFED7AB76EB
:105AA000CA82C97DFA5947F0ADD4A2AF9CA472C096
:105AB000B7FD9326363FF7CC34A5E5F171D8311503
:105AC00004C723C31896059A071280E2EB27B27524
:105AD00009832C1A1B6E5AA0523BD6B329E32F849C
